{
  "_format": "hh-sol-artifact-1",
  "contractName": "DogePound",
  "sourceName": "contracts/DogePound.sol",
  "abi": [
    {
      "inputs": [],
      "stateMutability": "nonpayable",
      "type": "constructor"
    },
    {
      "inputs": [],
      "name": "ApprovalCallerNotOwnerNorApproved",
      "type": "error"
    },
    {
      "inputs": [],
      "name": "ApprovalQueryForNonexistentToken",
      "type": "error"
    },
    {
      "inputs": [],
      "name": "BalanceQueryForZeroAddress",
      "type": "error"
    },
    {
      "inputs": [],
      "name": "MintERC2309QuantityExceedsLimit",
      "type": "error"
    },
    {
      "inputs": [],
      "name": "MintToZeroAddress",
      "type": "error"
    },
    {
      "inputs": [],
      "name": "MintZeroQuantity",
      "type": "error"
    },
    {
      "inputs": [],
      "name": "OwnerQueryForNonexistentToken",
      "type": "error"
    },
    {
      "inputs": [],
      "name": "OwnershipNotInitializedForExtraData",
      "type": "error"
    },
    {
      "inputs": [],
      "name": "TransferCallerNotOwnerNorApproved",
      "type": "error"
    },
    {
      "inputs": [],
      "name": "TransferFromIncorrectOwner",
      "type": "error"
    },
    {
      "inputs": [],
      "name": "TransferToNonERC721ReceiverImplementer",
      "type": "error"
    },
    {
      "inputs": [],
      "name": "TransferToZeroAddress",
      "type": "error"
    },
    {
      "inputs": [],
      "name": "URIQueryForNonexistentToken",
      "type": "error"
    },
    {
      "anonymous": false,
      "inputs": [
        {
          "indexed": true,
          "internalType": "address",
          "name": "owner",
          "type": "address"
        },
        {
          "indexed": true,
          "internalType": "address",
          "name": "approved",
          "type": "address"
        },
        {
          "indexed": true,
          "internalType": "uint256",
          "name": "tokenId",
          "type": "uint256"
        }
      ],
      "name": "Approval",
      "type": "event"
    },
    {
      "anonymous": false,
      "inputs": [
        {
          "indexed": true,
          "internalType": "address",
          "name": "owner",
          "type": "address"
        },
        {
          "indexed": true,
          "internalType": "address",
          "name": "operator",
          "type": "address"
        },
        {
          "indexed": false,
          "internalType": "bool",
          "name": "approved",
          "type": "bool"
        }
      ],
      "name": "ApprovalForAll",
      "type": "event"
    },
    {
      "anonymous": false,
      "inputs": [
        {
          "indexed": true,
          "internalType": "uint256",
          "name": "fromTokenId",
          "type": "uint256"
        },
        {
          "indexed": false,
          "internalType": "uint256",
          "name": "toTokenId",
          "type": "uint256"
        },
        {
          "indexed": true,
          "internalType": "address",
          "name": "from",
          "type": "address"
        },
        {
          "indexed": true,
          "internalType": "address",
          "name": "to",
          "type": "address"
        }
      ],
      "name": "ConsecutiveTransfer",
      "type": "event"
    },
    {
      "anonymous": false,
      "inputs": [
        {
          "indexed": true,
          "internalType": "address",
          "name": "from",
          "type": "address"
        },
        {
          "indexed": true,
          "internalType": "address",
          "name": "to",
          "type": "address"
        },
        {
          "indexed": true,
          "internalType": "uint256",
          "name": "tokenId",
          "type": "uint256"
        }
      ],
      "name": "Transfer",
      "type": "event"
    },
    {
      "inputs": [
        {
          "internalType": "address",
          "name": "to",
          "type": "address"
        },
        {
          "internalType": "uint256",
          "name": "tokenId",
          "type": "uint256"
        }
      ],
      "name": "approve",
      "outputs": [],
      "stateMutability": "payable",
      "type": "function"
    },
    {
      "inputs": [
        {
          "internalType": "address",
          "name": "owner",
          "type": "address"
        }
      ],
      "name": "balanceOf",
      "outputs": [
        {
          "internalType": "uint256",
          "name": "",
          "type": "uint256"
        }
      ],
      "stateMutability": "view",
      "type": "function"
    },
    {
      "inputs": [
        {
          "internalType": "uint256",
          "name": "tokenId",
          "type": "uint256"
        }
      ],
      "name": "getApproved",
      "outputs": [
        {
          "internalType": "address",
          "name": "",
          "type": "address"
        }
      ],
      "stateMutability": "view",
      "type": "function"
    },
    {
      "inputs": [
        {
          "internalType": "address",
          "name": "owner",
          "type": "address"
        },
        {
          "internalType": "address",
          "name": "operator",
          "type": "address"
        }
      ],
      "name": "isApprovedForAll",
      "outputs": [
        {
          "internalType": "bool",
          "name": "",
          "type": "bool"
        }
      ],
      "stateMutability": "view",
      "type": "function"
    },
    {
      "inputs": [],
      "name": "maxQuantity",
      "outputs": [
        {
          "internalType": "uint256",
          "name": "",
          "type": "uint256"
        }
      ],
      "stateMutability": "view",
      "type": "function"
    },
    {
      "inputs": [
        {
          "internalType": "uint256",
          "name": "quantity",
          "type": "uint256"
        }
      ],
      "name": "mint",
      "outputs": [],
      "stateMutability": "payable",
      "type": "function"
    },
    {
      "inputs": [],
      "name": "name",
      "outputs": [
        {
          "internalType": "string",
          "name": "",
          "type": "string"
        }
      ],
      "stateMutability": "view",
      "type": "function"
    },
    {
      "inputs": [],
      "name": "owner",
      "outputs": [
        {
          "internalType": "address",
          "name": "",
          "type": "address"
        }
      ],
      "stateMutability": "view",
      "type": "function"
    },
    {
      "inputs": [
        {
          "internalType": "uint256",
          "name": "tokenId",
          "type": "uint256"
        }
      ],
      "name": "ownerOf",
      "outputs": [
        {
          "internalType": "address",
          "name": "",
          "type": "address"
        }
      ],
      "stateMutability": "view",
      "type": "function"
    },
    {
      "inputs": [],
      "name": "promptDescription",
      "outputs": [
        {
          "internalType": "string",
          "name": "",
          "type": "string"
        }
      ],
      "stateMutability": "pure",
      "type": "function"
    },
    {
      "inputs": [
        {
          "internalType": "address",
          "name": "from",
          "type": "address"
        },
        {
          "internalType": "address",
          "name": "to",
          "type": "address"
        },
        {
          "internalType": "uint256",
          "name": "tokenId",
          "type": "uint256"
        }
      ],
      "name": "safeTransferFrom",
      "outputs": [],
      "stateMutability": "payable",
      "type": "function"
    },
    {
      "inputs": [
        {
          "internalType": "address",
          "name": "from",
          "type": "address"
        },
        {
          "internalType": "address",
          "name": "to",
          "type": "address"
        },
        {
          "internalType": "uint256",
          "name": "tokenId",
          "type": "uint256"
        },
        {
          "internalType": "bytes",
          "name": "_data",
          "type": "bytes"
        }
      ],
      "name": "safeTransferFrom",
      "outputs": [],
      "stateMutability": "payable",
      "type": "function"
    },
    {
      "inputs": [
        {
          "internalType": "address",
          "name": "operator",
          "type": "address"
        },
        {
          "internalType": "bool",
          "name": "approved",
          "type": "bool"
        }
      ],
      "name": "setApprovalForAll",
      "outputs": [],
      "stateMutability": "nonpayable",
      "type": "function"
    },
    {
      "inputs": [
        {
          "internalType": "bytes4",
          "name": "interfaceId",
          "type": "bytes4"
        }
      ],
      "name": "supportsInterface",
      "outputs": [
        {
          "internalType": "bool",
          "name": "",
          "type": "bool"
        }
      ],
      "stateMutability": "view",
      "type": "function"
    },
    {
      "inputs": [],
      "name": "symbol",
      "outputs": [
        {
          "internalType": "string",
          "name": "",
          "type": "string"
        }
      ],
      "stateMutability": "view",
      "type": "function"
    },
    {
      "inputs": [
        {
          "internalType": "uint256",
          "name": "tokenId",
          "type": "uint256"
        }
      ],
      "name": "tokenURI",
      "outputs": [
        {
          "internalType": "string",
          "name": "",
          "type": "string"
        }
      ],
      "stateMutability": "view",
      "type": "function"
    },
    {
      "inputs": [],
      "name": "totalSupply",
      "outputs": [
        {
          "internalType": "uint256",
          "name": "",
          "type": "uint256"
        }
      ],
      "stateMutability": "view",
      "type": "function"
    },
    {
      "inputs": [
        {
          "internalType": "address",
          "name": "from",
          "type": "address"
        },
        {
          "internalType": "address",
          "name": "to",
          "type": "address"
        },
        {
          "internalType": "uint256",
          "name": "tokenId",
          "type": "uint256"
        }
      ],
      "name": "transferFrom",
      "outputs": [],
      "stateMutability": "payable",
      "type": "function"
    }
  ],
  "bytecode": "0x608060405260056009556040518060800160405280605181526020016200237f60519139600a9081620000339190620003b0565b503480156200004157600080fd5b506040518060400160405280600981526020017f446f6765506f756e6400000000000000000000000000000000000000000000008152506040518060400160405280600281526020017f44500000000000000000000000000000000000000000000000000000000000008152508160029081620000bf9190620003b0565b508060039081620000d19190620003b0565b50620000e26200013160201b60201c565b600081905550505033600860006101000a81548173ffffffffffffffffffffffffffffffffffffffff021916908373ffffffffffffffffffffffffffffffffffffffff16021790555062000497565b600090565b600081519050919050565b7f4e487b7100000000000000000000000000000000000000000000000000000000600052604160045260246000fd5b7f4e487b7100000000000000000000000000000000000000000000000000000000600052602260045260246000fd5b60006002820490506001821680620001b857607f821691505b602082108103620001ce57620001cd62000170565b5b50919050565b60008190508160005260206000209050919050565b60006020601f8301049050919050565b600082821b905092915050565b600060088302620002387fffffffffffffffffffffffffffffffffffffffffffffffffffffffffffffffff82620001f9565b620002448683620001f9565b95508019841693508086168417925050509392505050565b6000819050919050565b6000819050919050565b6000620002916200028b62000285846200025c565b62000266565b6200025c565b9050919050565b6000819050919050565b620002ad8362000270565b620002c5620002bc8262000298565b84845462000206565b825550505050565b600090565b620002dc620002cd565b620002e9818484620002a2565b505050565b5b81811015620003115762000305600082620002d2565b600181019050620002ef565b5050565b601f82111562000360576200032a81620001d4565b6200033584620001e9565b8101602085101562000345578190505b6200035d6200035485620001e9565b830182620002ee565b50505b505050565b600082821c905092915050565b6000620003856000198460080262000365565b1980831691505092915050565b6000620003a0838362000372565b9150826002028217905092915050565b620003bb8262000136565b67ffffffffffffffff811115620003d757620003d662000141565b5b620003e382546200019f565b620003f082828562000315565b600060209050601f83116001811462000428576000841562000413578287015190505b6200041f858262000392565b8655506200048f565b601f1984166200043886620001d4565b60005b8281101562000462578489015182556001820191506020850194506020810190506200043b565b868310156200048257848901516200047e601f89168262000372565b8355505b6001600288020188555050505b505050505050565b611ed880620004a76000396000f3fe6080604052600436106101095760003560e01c80638da5cb5b11610095578063a22cb46511610064578063a22cb46514610349578063b88d4fde14610372578063c87b56dd1461038e578063e640cf7d146103cb578063e985e9c5146103f657610109565b80638da5cb5b146102ac57806395363731146102d757806395d89b4114610302578063a0712d681461032d57610109565b806318160ddd116100dc57806318160ddd146101cf57806323b872dd146101fa57806342842e0e146102165780636352211e1461023257806370a082311461026f57610109565b806301ffc9a71461010e57806306fdde031461014b578063081812fc14610176578063095ea7b3146101b3575b600080fd5b34801561011a57600080fd5b5061013560048036038101906101309190611650565b610433565b6040516101429190611698565b60405180910390f35b34801561015757600080fd5b506101606104c5565b60405161016d9190611743565b60405180910390f35b34801561018257600080fd5b5061019d6004803603810190610198919061179b565b610557565b6040516101aa9190611809565b60405180910390f35b6101cd60048036038101906101c89190611850565b6105d6565b005b3480156101db57600080fd5b506101e461071a565b6040516101f1919061189f565b60405180910390f35b610214600480360381019061020f91906118ba565b610731565b005b610230600480360381019061022b91906118ba565b610a53565b005b34801561023e57600080fd5b506102596004803603810190610254919061179b565b610a73565b6040516102669190611809565b60405180910390f35b34801561027b57600080fd5b506102966004803603810190610291919061190d565b610a85565b6040516102a3919061189f565b60405180910390f35b3480156102b857600080fd5b506102c1610b3d565b6040516102ce9190611809565b60405180910390f35b3480156102e357600080fd5b506102ec610b63565b6040516102f99190611743565b60405180910390f35b34801561030e57600080fd5b50610317610ba0565b6040516103249190611743565b60405180910390f35b6103476004803603810190610342919061179b565b610c32565b005b34801561035557600080fd5b50610370600480360381019061036b9190611966565b610d26565b005b61038c60048036038101906103879190611adb565b610e31565b005b34801561039a57600080fd5b506103b560048036038101906103b0919061179b565b610ea4565b6040516103c29190611743565b60405180910390f35b3480156103d757600080fd5b506103e0610f42565b6040516103ed919061189f565b60405180910390f35b34801561040257600080fd5b5061041d60048036038101906104189190611b5e565b610f48565b60405161042a9190611698565b60405180910390f35b60006301ffc9a760e01b827bffffffffffffffffffffffffffffffffffffffffffffffffffffffff1916148061048e57506380ac58cd60e01b827bffffffffffffffffffffffffffffffffffffffffffffffffffffffff1916145b806104be5750635b5e139f60e01b827bffffffffffffffffffffffffffffffffffffffffffffffffffffffff1916145b9050919050565b6060600280546104d490611bcd565b80601f016020809104026020016040519081016040528092919081815260200182805461050090611bcd565b801561054d5780601f106105225761010080835404028352916020019161054d565b820191906000526020600020905b81548152906001019060200180831161053057829003601f168201915b5050505050905090565b600061056282610fdc565b610598576040517fcf4700e400000000000000000000000000000000000000000000000000000000815260040160405180910390fd5b6006600083815260200190815260200160002060000160009054906101000a900473ffffffffffffffffffffffffffffffffffffffff169050919050565b60006105e182610a73565b90508073ffffffffffffffffffffffffffffffffffffffff1661060261103b565b73ffffffffffffffffffffffffffffffffffffffff16146106655761062e8161062961103b565b610f48565b610664576040517fcfb3b94200000000000000000000000000000000000000000000000000000000815260040160405180910390fd5b5b826006600084815260200190815260200160002060000160006101000a81548173ffffffffffffffffffffffffffffffffffffffff021916908373ffffffffffffffffffffffffffffffffffffffff160217905550818373ffffffffffffffffffffffffffffffffffffffff168273ffffffffffffffffffffffffffffffffffffffff167f8c5be1e5ebec7d5bd14f71427d1e84f3dd0314c0f7b2291e5b200ac8c7c3b92560405160405180910390a4505050565b6000610724611043565b6001546000540303905090565b600061073c82611048565b90508373ffffffffffffffffffffffffffffffffffffffff168173ffffffffffffffffffffffffffffffffffffffff16146107a3576040517fa114810000000000000000000000000000000000000000000000000000000000815260040160405180910390fd5b6000806107af84611114565b915091506107c581876107c061103b565b61113b565b610811576107da866107d561103b565b610f48565b610810576040517f59c896be00000000000000000000000000000000000000000000000000000000815260040160405180910390fd5b5b600073ffffffffffffffffffffffffffffffffffffffff168573ffffffffffffffffffffffffffffffffffffffff1603610877576040517fea553b3400000000000000000000000000000000000000000000000000000000815260040160405180910390fd5b610884868686600161117f565b801561088f57600082555b600560008773ffffffffffffffffffffffffffffffffffffffff1673ffffffffffffffffffffffffffffffffffffffff168152602001908152602001600020600081546001900391905081905550600560008673ffffffffffffffffffffffffffffffffffffffff1673ffffffffffffffffffffffffffffffffffffffff168152602001908152602001600020600081546001019190508190555061095d85610939888887611185565b7c0200000000000000000000000000000000000000000000000000000000176111ad565b600460008681526020019081526020016000208190555060007c02000000000000000000000000000000000000000000000000000000008416036109e357600060018501905060006004600083815260200190815260200160002054036109e15760005481146109e0578360046000838152602001908152602001600020819055505b5b505b838573ffffffffffffffffffffffffffffffffffffffff168773ffffffffffffffffffffffffffffffffffffffff167fddf252ad1be2c89b69c2b068fc378daa952ba7f163c4a11628f55a4df523b3ef60405160405180910390a4610a4b86868660016111d8565b505050505050565b610a6e83838360405180602001604052806000815250610e31565b505050565b6000610a7e82611048565b9050919050565b60008073ffffffffffffffffffffffffffffffffffffffff168273ffffffffffffffffffffffffffffffffffffffff1603610aec576040517f8f4eb60400000000000000000000000000000000000000000000000000000000815260040160405180910390fd5b67ffffffffffffffff600560008473ffffffffffffffffffffffffffffffffffffffff1673ffffffffffffffffffffffffffffffffffffffff16815260200190815260200160002054169050919050565b600860009054906101000a900473ffffffffffffffffffffffffffffffffffffffff1681565b60606040518060400160405280600f81526020017f446f676520506f756e64204e4654730000000000000000000000000000000000815250905090565b606060038054610baf90611bcd565b80601f0160208091040260200160405190810160405280929190818152602001828054610bdb90611bcd565b8015610c285780601f10610bfd57610100808354040283529160200191610c28565b820191906000526020600020905b815481529060010190602001808311610c0b57829003601f168201915b5050505050905090565b600860009054906101000a900473ffffffffffffffffffffffffffffffffffffffff1673ffffffffffffffffffffffffffffffffffffffff163373ffffffffffffffffffffffffffffffffffffffff1614610cc2576040517f08c379a0000000000000000000000000000000000000000000000000000000008152600401610cb990611c70565b60405180910390fd5b60095481610cce61071a565b610cd89190611cbf565b1115610d19576040517f08c379a0000000000000000000000000000000000000000000000000000000008152600401610d1090611d3f565b60405180910390fd5b610d2333826111de565b50565b8060076000610d3361103b565b73ffffffffffffffffffffffffffffffffffffffff1673ffffffffffffffffffffffffffffffffffffffff16815260200190815260200160002060008473ffffffffffffffffffffffffffffffffffffffff1673ffffffffffffffffffffffffffffffffffffffff16815260200190815260200160002060006101000a81548160ff0219169083151502179055508173ffffffffffffffffffffffffffffffffffffffff16610de061103b565b73ffffffffffffffffffffffffffffffffffffffff167f17307eab39ab6107e8899845ad3d59bd9653f200f220920489ca2b5937696c3183604051610e259190611698565b60405180910390a35050565b610e3c848484610731565b60008373ffffffffffffffffffffffffffffffffffffffff163b14610e9e57610e6784848484611399565b610e9d576040517fd1a57ed600000000000000000000000000000000000000000000000000000000815260040160405180910390fd5b5b50505050565b6060610eaf82610fdc565b610ee5576040517fa14c4b5000000000000000000000000000000000000000000000000000000000815260040160405180910390fd5b6000610eef6114e9565b90506000815103610f0f5760405180602001604052806000815250610f3a565b80610f198461157b565b604051602001610f2a929190611d9b565b6040516020818303038152906040525b915050919050565b60095481565b6000600760008473ffffffffffffffffffffffffffffffffffffffff1673ffffffffffffffffffffffffffffffffffffffff16815260200190815260200160002060008373ffffffffffffffffffffffffffffffffffffffff1673ffffffffffffffffffffffffffffffffffffffff16815260200190815260200160002060009054906101000a900460ff16905092915050565b600081610fe7611043565b11158015610ff6575060005482105b8015611034575060007c0100000000000000000000000000000000000000000000000000000000600460008581526020019081526020016000205416145b9050919050565b600033905090565b600090565b60008082905080611057611043565b116110dd576000548110156110dc5760006004600083815260200190815260200160002054905060007c01000000000000000000000000000000000000000000000000000000008216036110da575b600081036110d05760046000836001900393508381526020019081526020016000205490506110a6565b809250505061110f565b505b5b6040517fdf2d9b4200000000000000000000000000000000000000000000000000000000815260040160405180910390fd5b919050565b60008060006006600085815260200190815260200160002090508092508254915050915091565b600073ffffffffffffffffffffffffffffffffffffffff8316925073ffffffffffffffffffffffffffffffffffffffff821691508382148383141790509392505050565b50505050565b60008060e883901c905060e861119c8686846115cb565b62ffffff16901b9150509392505050565b600073ffffffffffffffffffffffffffffffffffffffff83169250814260a01b178317905092915050565b50505050565b6000805490506000820361121e576040517fb562e8dd00000000000000000000000000000000000000000000000000000000815260040160405180910390fd5b61122b600084838561117f565b600160406001901b178202600560008573ffffffffffffffffffffffffffffffffffffffff1673ffffffffffffffffffffffffffffffffffffffff168152602001908152602001600020600082825401925050819055506112a2836112936000866000611185565b61129c856115d4565b176111ad565b6004600083815260200190815260200160002081905550600080838301905073ffffffffffffffffffffffffffffffffffffffff85169150828260007fddf252ad1be2c89b69c2b068fc378daa952ba7f163c4a11628f55a4df523b3ef600080a4600183015b81811461134357808360007fddf252ad1be2c89b69c2b068fc378daa952ba7f163c4a11628f55a4df523b3ef600080a4600181019050611308565b506000820361137e576040517f2e07630000000000000000000000000000000000000000000000000000000000815260040160405180910390fd5b80600081905550505061139460008483856111d8565b505050565b60008373ffffffffffffffffffffffffffffffffffffffff1663150b7a026113bf61103b565b8786866040518563ffffffff1660e01b81526004016113e19493929190611e14565b6020604051808303816000875af192505050801561141d57506040513d601f19601f8201168201806040525081019061141a9190611e75565b60015b611496573d806000811461144d576040519150601f19603f3d011682016040523d82523d6000602084013e611452565b606091505b50600081510361148e576040517fd1a57ed600000000000000000000000000000000000000000000000000000000815260040160405180910390fd5b805181602001fd5b63150b7a0260e01b7bffffffffffffffffffffffffffffffffffffffffffffffffffffffff1916817bffffffffffffffffffffffffffffffffffffffffffffffffffffffff191614915050949350505050565b6060600a80546114f890611bcd565b80601f016020809104026020016040519081016040528092919081815260200182805461152490611bcd565b80156115715780601f1061154657610100808354040283529160200191611571565b820191906000526020600020905b81548152906001019060200180831161155457829003601f168201915b5050505050905090565b606060a060405101806040526020810391506000825281835b6001156115b657600184039350600a81066030018453600a8104905080611594575b50828103602084039350808452505050919050565b60009392505050565b60006001821460e11b9050919050565b6000604051905090565b600080fd5b600080fd5b60007fffffffff0000000000000000000000000000000000000000000000000000000082169050919050565b61162d816115f8565b811461163857600080fd5b50565b60008135905061164a81611624565b92915050565b600060208284031215611666576116656115ee565b5b60006116748482850161163b565b91505092915050565b60008115159050919050565b6116928161167d565b82525050565b60006020820190506116ad6000830184611689565b92915050565b600081519050919050565b600082825260208201905092915050565b60005b838110156116ed5780820151818401526020810190506116d2565b60008484015250505050565b6000601f19601f8301169050919050565b6000611715826116b3565b61171f81856116be565b935061172f8185602086016116cf565b611738816116f9565b840191505092915050565b6000602082019050818103600083015261175d818461170a565b905092915050565b6000819050919050565b61177881611765565b811461178357600080fd5b50565b6000813590506117958161176f565b92915050565b6000602082840312156117b1576117b06115ee565b5b60006117bf84828501611786565b91505092915050565b600073ffffffffffffffffffffffffffffffffffffffff82169050919050565b60006117f3826117c8565b9050919050565b611803816117e8565b82525050565b600060208201905061181e60008301846117fa565b92915050565b61182d816117e8565b811461183857600080fd5b50565b60008135905061184a81611824565b92915050565b60008060408385031215611867576118666115ee565b5b60006118758582860161183b565b925050602061188685828601611786565b9150509250929050565b61189981611765565b82525050565b60006020820190506118b46000830184611890565b92915050565b6000806000606084860312156118d3576118d26115ee565b5b60006118e18682870161183b565b93505060206118f28682870161183b565b925050604061190386828701611786565b9150509250925092565b600060208284031215611923576119226115ee565b5b60006119318482850161183b565b91505092915050565b6119438161167d565b811461194e57600080fd5b50565b6000813590506119608161193a565b92915050565b6000806040838503121561197d5761197c6115ee565b5b600061198b8582860161183b565b925050602061199c85828601611951565b9150509250929050565b600080fd5b600080fd5b7f4e487b7100000000000000000000000000000000000000000000000000000000600052604160045260246000fd5b6119e8826116f9565b810181811067ffffffffffffffff82111715611a0757611a066119b0565b5b80604052505050565b6000611a1a6115e4565b9050611a2682826119df565b919050565b600067ffffffffffffffff821115611a4657611a456119b0565b5b611a4f826116f9565b9050602081019050919050565b82818337600083830152505050565b6000611a7e611a7984611a2b565b611a10565b905082815260208101848484011115611a9a57611a996119ab565b5b611aa5848285611a5c565b509392505050565b600082601f830112611ac257611ac16119a6565b5b8135611ad2848260208601611a6b565b91505092915050565b60008060008060808587031215611af557611af46115ee565b5b6000611b038782880161183b565b9450506020611b148782880161183b565b9350506040611b2587828801611786565b925050606085013567ffffffffffffffff811115611b4657611b456115f3565b5b611b5287828801611aad565b91505092959194509250565b60008060408385031215611b7557611b746115ee565b5b6000611b838582860161183b565b9250506020611b948582860161183b565b9150509250929050565b7f4e487b7100000000000000000000000000000000000000000000000000000000600052602260045260246000fd5b60006002820490506001821680611be557607f821691505b602082108103611bf857611bf7611b9e565b5b50919050565b7f4f6e6c79206f776e65722063616e20706572666f726d2074686973206163746960008201527f6f6e210000000000000000000000000000000000000000000000000000000000602082015250565b6000611c5a6023836116be565b9150611c6582611bfe565b604082019050919050565b60006020820190508181036000830152611c8981611c4d565b9050919050565b7f4e487b7100000000000000000000000000000000000000000000000000000000600052601160045260246000fd5b6000611cca82611765565b9150611cd583611765565b9250828201905080821115611ced57611cec611c90565b5b92915050565b7f596f752063616e206e6f74206d696e74206d6f7265207468616e203500000000600082015250565b6000611d29601c836116be565b9150611d3482611cf3565b602082019050919050565b60006020820190508181036000830152611d5881611d1c565b9050919050565b600081905092915050565b6000611d75826116b3565b611d7f8185611d5f565b9350611d8f8185602086016116cf565b80840191505092915050565b6000611da78285611d6a565b9150611db38284611d6a565b91508190509392505050565b600081519050919050565b600082825260208201905092915050565b6000611de682611dbf565b611df08185611dca565b9350611e008185602086016116cf565b611e09816116f9565b840191505092915050565b6000608082019050611e2960008301876117fa565b611e3660208301866117fa565b611e436040830185611890565b8181036060830152611e558184611ddb565b905095945050505050565b600081519050611e6f81611624565b92915050565b600060208284031215611e8b57611e8a6115ee565b5b6000611e9984828501611e60565b9150509291505056fea2646970667358221220bc2d7d9a875c82cef6a8d6a988ae2f11f0ef6bdf20c6884b19afa939d46ff75b64736f6c6343000812003368747470733a2f2f676174657761792e70696e6174612e636c6f75642f697066732f516d597657585435767a677546376b756d324b425779635352637a657934525a5742646f705841484a41466e31612f",
  "linkReferences": {},
  "deployedLinkReferences": {}
}